{
  "contractName": "Fractional",
  "abi": [
    {
      "inputs": [
        {
          "internalType": "string",
          "name": "_name",
          "type": "string"
        },
        {
          "internalType": "string",
          "name": "_symbol",
          "type": "string"
        }
      ],
      "stateMutability": "nonpayable",
      "type": "constructor"
    },
    {
      "anonymous": false,
      "inputs": [
        {
          "indexed": true,
          "internalType": "address",
          "name": "owner",
          "type": "address"
        },
        {
          "indexed": true,
          "internalType": "address",
          "name": "approved",
          "type": "address"
        },
        {
          "indexed": true,
          "internalType": "uint256",
          "name": "tokenId",
          "type": "uint256"
        }
      ],
      "name": "Approval",
      "type": "event"
    },
    {
      "anonymous": false,
      "inputs": [
        {
          "indexed": true,
          "internalType": "address",
          "name": "owner",
          "type": "address"
        },
        {
          "indexed": true,
          "internalType": "address",
          "name": "operator",
          "type": "address"
        },
        {
          "indexed": false,
          "internalType": "bool",
          "name": "approved",
          "type": "bool"
        }
      ],
      "name": "ApprovalForAll",
      "type": "event"
    },
    {
      "anonymous": false,
      "inputs": [
        {
          "indexed": true,
          "internalType": "address",
          "name": "from",
          "type": "address"
        },
        {
          "indexed": true,
          "internalType": "address",
          "name": "to",
          "type": "address"
        },
        {
          "indexed": true,
          "internalType": "uint256",
          "name": "tokenId",
          "type": "uint256"
        }
      ],
      "name": "Transfer",
      "type": "event"
    },
    {
      "inputs": [
        {
          "internalType": "address",
          "name": "",
          "type": "address"
        }
      ],
      "name": "Track",
      "outputs": [
        {
          "internalType": "uint256",
          "name": "",
          "type": "uint256"
        }
      ],
      "stateMutability": "view",
      "type": "function",
      "constant": true
    },
    {
      "inputs": [
        {
          "internalType": "address",
          "name": "to",
          "type": "address"
        },
        {
          "internalType": "uint256",
          "name": "tokenId",
          "type": "uint256"
        }
      ],
      "name": "approve",
      "outputs": [],
      "stateMutability": "nonpayable",
      "type": "function"
    },
    {
      "inputs": [
        {
          "internalType": "address",
          "name": "owner",
          "type": "address"
        }
      ],
      "name": "balanceOf",
      "outputs": [
        {
          "internalType": "uint256",
          "name": "",
          "type": "uint256"
        }
      ],
      "stateMutability": "view",
      "type": "function",
      "constant": true
    },
    {
      "inputs": [
        {
          "internalType": "uint256",
          "name": "tokenId",
          "type": "uint256"
        }
      ],
      "name": "getApproved",
      "outputs": [
        {
          "internalType": "address",
          "name": "",
          "type": "address"
        }
      ],
      "stateMutability": "view",
      "type": "function",
      "constant": true
    },
    {
      "inputs": [
        {
          "internalType": "uint256",
          "name": "",
          "type": "uint256"
        }
      ],
      "name": "idToNFT",
      "outputs": [
        {
          "internalType": "uint256",
          "name": "tokenID",
          "type": "uint256"
        },
        {
          "internalType": "address payable",
          "name": "owner",
          "type": "address"
        },
        {
          "internalType": "uint256",
          "name": "price",
          "type": "uint256"
        }
      ],
      "stateMutability": "view",
      "type": "function",
      "constant": true
    },
    {
      "inputs": [
        {
          "internalType": "uint256",
          "name": "",
          "type": "uint256"
        }
      ],
      "name": "idToPrice",
      "outputs": [
        {
          "internalType": "uint256",
          "name": "",
          "type": "uint256"
        }
      ],
      "stateMutability": "view",
      "type": "function",
      "constant": true
    },
    {
      "inputs": [
        {
          "internalType": "uint256",
          "name": "",
          "type": "uint256"
        }
      ],
      "name": "idToShare",
      "outputs": [
        {
          "internalType": "contract ERC20",
          "name": "",
          "type": "address"
        }
      ],
      "stateMutability": "view",
      "type": "function",
      "constant": true
    },
    {
      "inputs": [
        {
          "internalType": "uint256",
          "name": "",
          "type": "uint256"
        }
      ],
      "name": "idToShareValue",
      "outputs": [
        {
          "internalType": "uint256",
          "name": "",
          "type": "uint256"
        }
      ],
      "stateMutability": "view",
      "type": "function",
      "constant": true
    },
    {
      "inputs": [
        {
          "internalType": "address",
          "name": "owner",
          "type": "address"
        },
        {
          "internalType": "address",
          "name": "operator",
          "type": "address"
        }
      ],
      "name": "isApprovedForAll",
      "outputs": [
        {
          "internalType": "bool",
          "name": "",
          "type": "bool"
        }
      ],
      "stateMutability": "view",
      "type": "function",
      "constant": true
    },
    {
      "inputs": [],
      "name": "name",
      "outputs": [
        {
          "internalType": "string",
          "name": "",
          "type": "string"
        }
      ],
      "stateMutability": "view",
      "type": "function",
      "constant": true
    },
    {
      "inputs": [
        {
          "internalType": "uint256",
          "name": "tokenId",
          "type": "uint256"
        }
      ],
      "name": "ownerOf",
      "outputs": [
        {
          "internalType": "address",
          "name": "",
          "type": "address"
        }
      ],
      "stateMutability": "view",
      "type": "function",
      "constant": true
    },
    {
      "inputs": [
        {
          "internalType": "address",
          "name": "from",
          "type": "address"
        },
        {
          "internalType": "address",
          "name": "to",
          "type": "address"
        },
        {
          "internalType": "uint256",
          "name": "tokenId",
          "type": "uint256"
        }
      ],
      "name": "safeTransferFrom",
      "outputs": [],
      "stateMutability": "nonpayable",
      "type": "function"
    },
    {
      "inputs": [
        {
          "internalType": "address",
          "name": "from",
          "type": "address"
        },
        {
          "internalType": "address",
          "name": "to",
          "type": "address"
        },
        {
          "internalType": "uint256",
          "name": "tokenId",
          "type": "uint256"
        },
        {
          "internalType": "bytes",
          "name": "data",
          "type": "bytes"
        }
      ],
      "name": "safeTransferFrom",
      "outputs": [],
      "stateMutability": "nonpayable",
      "type": "function"
    },
    {
      "inputs": [
        {
          "internalType": "address",
          "name": "operator",
          "type": "address"
        },
        {
          "internalType": "bool",
          "name": "approved",
          "type": "bool"
        }
      ],
      "name": "setApprovalForAll",
      "outputs": [],
      "stateMutability": "nonpayable",
      "type": "function"
    },
    {
      "inputs": [
        {
          "internalType": "bytes4",
          "name": "interfaceId",
          "type": "bytes4"
        }
      ],
      "name": "supportsInterface",
      "outputs": [
        {
          "internalType": "bool",
          "name": "",
          "type": "bool"
        }
      ],
      "stateMutability": "view",
      "type": "function",
      "constant": true
    },
    {
      "inputs": [],
      "name": "symbol",
      "outputs": [
        {
          "internalType": "string",
          "name": "",
          "type": "string"
        }
      ],
      "stateMutability": "view",
      "type": "function",
      "constant": true
    },
    {
      "inputs": [
        {
          "internalType": "uint256",
          "name": "tokenId",
          "type": "uint256"
        }
      ],
      "name": "tokenURI",
      "outputs": [
        {
          "internalType": "string",
          "name": "",
          "type": "string"
        }
      ],
      "stateMutability": "view",
      "type": "function",
      "constant": true
    },
    {
      "inputs": [
        {
          "internalType": "address",
          "name": "from",
          "type": "address"
        },
        {
          "internalType": "address",
          "name": "to",
          "type": "address"
        },
        {
          "internalType": "uint256",
          "name": "tokenId",
          "type": "uint256"
        }
      ],
      "name": "transferFrom",
      "outputs": [],
      "stateMutability": "nonpayable",
      "type": "function"
    },
    {
      "inputs": [
        {
          "internalType": "string",
          "name": "_tokenURI",
          "type": "string"
        },
        {
          "internalType": "uint256",
          "name": "_price",
          "type": "uint256"
        }
      ],
      "name": "createNFT",
      "outputs": [],
      "stateMutability": "nonpayable",
      "type": "function"
    },
    {
      "inputs": [
        {
          "internalType": "uint256",
          "name": "_tokenID",
          "type": "uint256"
        },
        {
          "internalType": "string",
          "name": "_tokenURI",
          "type": "string"
        },
        {
          "internalType": "uint256",
          "name": "_sharesAmount",
          "type": "uint256"
        }
      ],
      "name": "lockNFT",
      "outputs": [],
      "stateMutability": "nonpayable",
      "type": "function"
    },
    {
      "inputs": [
        {
          "internalType": "uint256",
          "name": "_tokenID",
          "type": "uint256"
        },
        {
          "internalType": "uint256",
          "name": "_totalShares",
          "type": "uint256"
        },
        {
          "internalType": "address",
          "name": "_lender",
          "type": "address"
        }
      ],
      "name": "buyFractionalShares",
      "outputs": [],
      "stateMutability": "payable",
      "type": "function",
      "payable": true
    },
    {
      "inputs": [],
      "name": "fetchNFTs",
      "outputs": [
        {
          "components": [
            {
              "internalType": "uint256",
              "name": "tokenID",
              "type": "uint256"
            },
            {
              "internalType": "address payable",
              "name": "owner",
              "type": "address"
            },
            {
              "internalType": "uint256",
              "name": "price",
              "type": "uint256"
            }
          ],
          "internalType": "struct Fractional.NFT[]",
          "name": "",
          "type": "tuple[]"
        }
      ],
      "stateMutability": "view",
      "type": "function",
      "constant": true
    }
  ],
  "bytecode": "0x60a06040523480156200001157600080fd5b50604051620035ae380380620035ae8339810160408190526200003491620001e6565b8151829082906200004d90600090602085019062000073565b5080516200006390600190602084019062000073565b505033608052506200028c915050565b828054620000819062000250565b90600052602060002090601f016020900481019282620000a55760008555620000f0565b82601f10620000c057805160ff1916838001178555620000f0565b82800160010185558215620000f0579182015b82811115620000f0578251825591602001919060010190620000d3565b50620000fe92915062000102565b5090565b5b80821115620000fe576000815560010162000103565b634e487b7160e01b600052604160045260246000fd5b600082601f8301126200014157600080fd5b81516001600160401b03808211156200015e576200015e62000119565b604051601f8301601f19908116603f0116810190828211818310171562000189576200018962000119565b81604052838152602092508683858801011115620001a657600080fd5b600091505b83821015620001ca5785820183015181830184015290820190620001ab565b83821115620001dc5760008385830101525b9695505050505050565b60008060408385031215620001fa57600080fd5b82516001600160401b03808211156200021257600080fd5b62000220868387016200012f565b935060208501519150808211156200023757600080fd5b5062000246858286016200012f565b9150509250929050565b600181811c908216806200026557607f821691505b6020821081036200028657634e487b7160e01b600052602260045260246000fd5b50919050565b608051613309620002a5600039600050506133096000f3fe6080604052600436106200014f5760003560e01c80636352211e11620000b9578063a22cb4651162000078578063a22cb465146200042c578063b88d4fde1462000451578063c87b56dd1462000476578063c89b023e146200049b578063e985e9c514620004d5578063f9c6a054146200052257600080fd5b80636352211e146200037e57806365b3818414620003a357806370a0823114620003c857806378f04baf14620003ed57806395d89b41146200041457600080fd5b80630f10df6311620001125780630f10df63146200025a57806323b872dd146200027157806326829155146200029657806333aa49cd14620002bb57806342842e0e146200032857806344a39c25146200034d57600080fd5b806301ffc9a7146200015457806306fdde03146200018e578063081812fc14620001b5578063095ea7b314620001f35780630a597494146200021a575b600080fd5b3480156200016157600080fd5b506200017962000173366004620019af565b62000553565b60405190151581526020015b60405180910390f35b3480156200019b57600080fd5b50620001a6620005a7565b60405162000185919062001a2c565b348015620001c257600080fd5b50620001da620001d436600462001a41565b62000641565b6040516001600160a01b03909116815260200162000185565b3480156200020057600080fd5b50620002186200021236600462001a78565b6200066a565b005b3480156200022757600080fd5b506200024b6200023936600462001a41565b600c6020526000908152604090205481565b60405190815260200162000185565b620002186200026b36600462001aa5565b6200078e565b3480156200027e57600080fd5b50620002186200029036600462001add565b6200089a565b348015620002a357600080fd5b5062000218620002b536600462001bd4565b620008d2565b348015620002c857600080fd5b5062000304620002da36600462001a41565b60096020526000908152604090208054600182015460029092015490916001600160a01b03169083565b604080519384526001600160a01b0390921660208401529082015260600162000185565b3480156200033557600080fd5b50620002186200034736600462001add565b62000971565b3480156200035a57600080fd5b506200024b6200036c36600462001c1d565b60086020526000908152604090205481565b3480156200038b57600080fd5b50620001da6200039d36600462001a41565b6200098e565b348015620003b057600080fd5b5062000218620003c236600462001c3b565b620009f0565b348015620003d557600080fd5b506200024b620003e736600462001c1d565b62000baf565b348015620003fa57600080fd5b506200040562000c37565b60405162000185919062001c8f565b3480156200042157600080fd5b50620001a662000e19565b3480156200043957600080fd5b50620002186200044b36600462001d02565b62000e2a565b3480156200045e57600080fd5b50620002186200047036600462001d3e565b62000e3b565b3480156200048357600080fd5b50620001a66200049536600462001a41565b62000e7a565b348015620004a857600080fd5b50620001da620004ba36600462001a41565b600d602052600090815260409020546001600160a01b031681565b348015620004e257600080fd5b5062000179620004f436600462001dc3565b6001600160a01b03918216600090815260056020908152604080832093909416825291909152205460ff1690565b3480156200052f57600080fd5b506200024b6200054136600462001a41565b600b6020526000908152604090205481565b60006001600160e01b031982166380ac58cd60e01b14806200058557506001600160e01b03198216635b5e139f60e01b145b80620005a157506301ffc9a760e01b6001600160e01b03198316145b92915050565b606060008054620005b89062001dfb565b80601f0160208091040260200160405190810160405280929190818152602001828054620005e69062001dfb565b8015620006375780601f106200060b5761010080835404028352916020019162000637565b820191906000526020600020905b8154815290600101906020018083116200061957829003601f168201915b5050505050905090565b60006200064e8262000f9b565b506000908152600460205260409020546001600160a01b031690565b600062000677826200098e565b9050806001600160a01b0316836001600160a01b031603620006ea5760405162461bcd60e51b815260206004820152602160248201527f4552433732313a20617070726f76616c20746f2063757272656e74206f776e656044820152603960f91b60648201526084015b60405180910390fd5b336001600160a01b0382161480620007095750620007098133620004f4565b6200077d5760405162461bcd60e51b815260206004820152603e60248201527f4552433732313a20617070726f76652063616c6c6572206973206e6f7420746f60448201527f6b656e206f776e6572206e6f7220617070726f76656420666f7220616c6c00006064820152608401620006e1565b62000789838362000fff565b505050565b6000838152600c6020526040902054620007a990836200106f565b341015620007ef5760405162461bcd60e51b8152602060048201526012602482015271496e73756666696369656e742066756e647360701b6044820152606401620006e1565b6000838152600c60205260408120546200080a90846200106f565b6000858152600d60205260409081902054905163a9059cbb60e01b81526001600160a01b0385811660048301526024820187905292935091169063a9059cbb906044016020604051808303816000875af11580156200086d573d6000803e3d6000fd5b505050506040513d601f19601f8201168201806040525081019062000893919062001e37565b5050505050565b620008a6338262001084565b620008c55760405162461bcd60e51b8152600401620006e19062001e57565b6200078983838362001108565b6000620008e03384620012b0565b9050620008f682670de0b6b3a764000062001ebb565b6000828152600b60209081526040808320938455600a82528083208054336001600160a01b0319918216811790925582516060810184528781528085019283529554868401908152968552600990935292209251835590516001830180549092166001600160a01b0390911617905590516002909101555050565b620007898383836040518060200160405280600081525062000e3b565b6000818152600260205260408120546001600160a01b031680620005a15760405162461bcd60e51b8152602060048201526018602482015277115490cdcc8c4e881a5b9d985b1a59081d1bdad95b88125160421b6044820152606401620006e1565b620009fe3330858562001301565b600062000a0b8462001343565b905060006040518060400160405280600b81526020016a119c9858dd1a5bdb93919560aa1b81525090506000818360405160200162000a4c92919062001edd565b60408051601f19818403018152828201825260048352631193919560e21b602084810191909152915190935060009162000a8b91849188910162001edd565b6040516020818303038152906040529050600083828860405162000aaf90620018e4565b62000abd9392919062001f10565b604051809103906000f08015801562000ada573d6000803e3d6000fd5b5060405163a9059cbb60e01b8152306004820152602481018990529091506001600160a01b0382169063a9059cbb906044016020604051808303816000875af115801562000b2c573d6000803e3d6000fd5b505050506040513d601f19601f8201168201806040525081019062000b52919062001e37565b506000898152600d6020908152604080832080546001600160a01b0319166001600160a01b038616179055600b90915290205462000b9181896200145c565b60009a8b52600c6020526040909a2099909955505050505050505050565b60006001600160a01b03821662000c1b5760405162461bcd60e51b815260206004820152602960248201527f4552433732313a2061646472657373207a65726f206973206e6f7420612076616044820152683634b21037bbb732b960b91b6064820152608401620006e1565b506001600160a01b031660009081526003602052604090205490565b6060600062000c4560075490565b905060008060005b8381101562000cb057336009600062000c6884600162001f4a565b81526020810191909152604001600020600101546001600160a01b03160362000c9b5762000c9860018462001f4a565b92505b8062000ca78162001f65565b91505062000c4d565b5060008267ffffffffffffffff81111562000ccf5762000ccf62001b1e565b60405190808252806020026020018201604052801562000d3057816020015b62000d1c60405180606001604052806000815260200160006001600160a01b03168152602001600081525090565b81526020019060019003908162000cee5790505b50905060005b8481101562000e1057336009600062000d5184600162001f4a565b81526020810191909152604001600020600101546001600160a01b03160362000dfb57600062000d8382600162001f4a565b60008181526009602090815260409182902082516060810184528154815260018201546001600160a01b0316928101929092526002810154928201929092528551929350909185908790811062000dde5762000dde62001f81565b602090810291909101015262000df660018662001f4a565b945050505b8062000e078162001f65565b91505062000d36565b50949350505050565b606060018054620005b89062001dfb565b62000e373383836200146a565b5050565b62000e47338362001084565b62000e665760405162461bcd60e51b8152600401620006e19062001e57565b62000e74848484846200153a565b50505050565b606062000e878262000f9b565b6000828152600660205260408120805462000ea29062001dfb565b80601f016020809104026020016040519081016040528092919081815260200182805462000ed09062001dfb565b801562000f215780601f1062000ef55761010080835404028352916020019162000f21565b820191906000526020600020905b81548152906001019060200180831162000f0357829003601f168201915b50505050509050600062000f4060408051602081019091526000815290565b9050805160000362000f53575092915050565b81511562000f8857808260405160200162000f7092919062001edd565b60405160208183030381529060405292505050919050565b62000f938462001574565b949350505050565b6000818152600260205260409020546001600160a01b031662000ffc5760405162461bcd60e51b8152602060048201526018602482015277115490cdcc8c4e881a5b9d985b1a59081d1bdad95b88125160421b6044820152606401620006e1565b50565b600081815260046020526040902080546001600160a01b0319166001600160a01b038416908117909155819062001036826200098e565b6001600160a01b03167f8c5be1e5ebec7d5bd14f71427d1e84f3dd0314c0f7b2291e5b200ac8c7c3b92560405160405180910390a45050565b60006200107d828462001ebb565b9392505050565b60008062001092836200098e565b9050806001600160a01b0316846001600160a01b03161480620010da57506001600160a01b0380821660009081526005602090815260408083209388168352929052205460ff165b8062000f935750836001600160a01b0316620010f68462000641565b6001600160a01b031614949350505050565b826001600160a01b03166200111d826200098e565b6001600160a01b031614620011835760405162461bcd60e51b815260206004820152602560248201527f4552433732313a207472616e736665722066726f6d20696e636f72726563742060448201526437bbb732b960d91b6064820152608401620006e1565b6001600160a01b038216620011e75760405162461bcd60e51b8152602060048201526024808201527f4552433732313a207472616e7366657220746f20746865207a65726f206164646044820152637265737360e01b6064820152608401620006e1565b620011f460008262000fff565b6001600160a01b03831660009081526003602052604081208054600192906200121f90849062001f97565b90915550506001600160a01b03821660009081526003602052604081208054600192906200124f90849062001f4a565b909155505060008181526002602052604080822080546001600160a01b0319166001600160a01b0386811691821790925591518493918716917fddf252ad1be2c89b69c2b068fc378daa952ba7f163c4a11628f55a4df523b3ef91a4505050565b600080620012bd60075490565b9050620012cb8482620015f0565b620012d7818462001738565b6001600160a01b03841660009081526008602052604090208190556200107d600780546001019055565b6200130e84848462001108565b6200131a828262001738565b506001600160a01b03928316600090815260086020526040808220829055929093168352912055565b6060816000036200136b5750506040805180820190915260018152600360fc1b602082015290565b8160005b81156200139b5780620013828162001f65565b9150620013939050600a8362001fc7565b91506200136f565b60008167ffffffffffffffff811115620013b957620013b962001b1e565b6040519080825280601f01601f191660200182016040528015620013e4576020820181803683370190505b5090505b841562000f9357620013fc60018362001f97565b91506200140b600a8662001fde565b6200141890603062001f4a565b60f81b81838151811062001430576200143062001f81565b60200101906001600160f81b031916908160001a90535062001454600a8662001fc7565b9450620013e8565b60006200107d828462001fc7565b816001600160a01b0316836001600160a01b031603620014cd5760405162461bcd60e51b815260206004820152601960248201527f4552433732313a20617070726f766520746f2063616c6c6572000000000000006044820152606401620006e1565b6001600160a01b03838116600081815260056020908152604080832094871680845294825291829020805460ff191686151590811790915591519182527f17307eab39ab6107e8899845ad3d59bd9653f200f220920489ca2b5937696c31910160405180910390a3505050565b6200154784848462001108565b6200155584848484620017d6565b62000e745760405162461bcd60e51b8152600401620006e19062001ff5565b6060620015818262000f9b565b60006200159960408051602081019091526000815290565b90506000815111620015bb57604051806020016040528060008152506200107d565b80620015c78462001343565b604051602001620015da92919062001edd565b6040516020818303038152906040529392505050565b6001600160a01b038216620016485760405162461bcd60e51b815260206004820181905260248201527f4552433732313a206d696e7420746f20746865207a65726f20616464726573736044820152606401620006e1565b6000818152600260205260409020546001600160a01b031615620016af5760405162461bcd60e51b815260206004820152601c60248201527f4552433732313a20746f6b656e20616c7265616479206d696e746564000000006044820152606401620006e1565b6001600160a01b0382166000908152600360205260408120805460019290620016da90849062001f4a565b909155505060008181526002602052604080822080546001600160a01b0319166001600160a01b03861690811790915590518392907fddf252ad1be2c89b69c2b068fc378daa952ba7f163c4a11628f55a4df523b3ef908290a45050565b6000828152600260205260409020546001600160a01b0316620017b55760405162461bcd60e51b815260206004820152602e60248201527f45524337323155524953746f726167653a2055524920736574206f66206e6f6e60448201526d32bc34b9ba32b73a103a37b5b2b760911b6064820152608401620006e1565b600082815260066020908152604090912082516200078992840190620018f2565b60006001600160a01b0384163b15620018d957604051630a85bd0160e11b81526001600160a01b0385169063150b7a02906200181d90339089908890889060040162002047565b6020604051808303816000875af19250505080156200185b575060408051601f3d908101601f19168201909252620018589181019062002086565b60015b620018be573d8080156200188c576040519150601f19603f3d011682016040523d82523d6000602084013e62001891565b606091505b508051600003620018b65760405162461bcd60e51b8152600401620006e19062001ff5565b805181602001fd5b6001600160e01b031916630a85bd0160e11b14905062000f93565b506001949350505050565b61122d80620020a783390190565b828054620019009062001dfb565b90600052602060002090601f0160209004810192826200192457600085556200196f565b82601f106200193f57805160ff19168380011785556200196f565b828001600101855582156200196f579182015b828111156200196f57825182559160200191906001019062001952565b506200197d92915062001981565b5090565b5b808211156200197d576000815560010162001982565b6001600160e01b03198116811462000ffc57600080fd5b600060208284031215620019c257600080fd5b81356200107d8162001998565b60005b83811015620019ec578181015183820152602001620019d2565b8381111562000e745750506000910152565b6000815180845262001a18816020860160208601620019cf565b601f01601f19169290920160200192915050565b6020815260006200107d6020830184620019fe565b60006020828403121562001a5457600080fd5b5035919050565b80356001600160a01b038116811462001a7357600080fd5b919050565b6000806040838503121562001a8c57600080fd5b62001a978362001a5b565b946020939093013593505050565b60008060006060848603121562001abb57600080fd5b833592506020840135915062001ad46040850162001a5b565b90509250925092565b60008060006060848603121562001af357600080fd5b62001afe8462001a5b565b925062001b0e6020850162001a5b565b9150604084013590509250925092565b634e487b7160e01b600052604160045260246000fd5b600067ffffffffffffffff8084111562001b525762001b5262001b1e565b604051601f8501601f19908116603f0116810190828211818310171562001b7d5762001b7d62001b1e565b8160405280935085815286868601111562001b9757600080fd5b858560208301376000602087830101525050509392505050565b600082601f83011262001bc357600080fd5b6200107d8383356020850162001b34565b6000806040838503121562001be857600080fd5b823567ffffffffffffffff81111562001c0057600080fd5b62001c0e8582860162001bb1565b95602094909401359450505050565b60006020828403121562001c3057600080fd5b6200107d8262001a5b565b60008060006060848603121562001c5157600080fd5b83359250602084013567ffffffffffffffff81111562001c7057600080fd5b62001c7e8682870162001bb1565b925050604084013590509250925092565b602080825282518282018190526000919060409081850190868401855b8281101562001ce657815180518552868101516001600160a01b031687860152850151858501526060909301929085019060010162001cac565b5091979650505050505050565b801515811462000ffc57600080fd5b6000806040838503121562001d1657600080fd5b62001d218362001a5b565b9150602083013562001d338162001cf3565b809150509250929050565b6000806000806080858703121562001d5557600080fd5b62001d608562001a5b565b935062001d706020860162001a5b565b925060408501359150606085013567ffffffffffffffff81111562001d9457600080fd5b8501601f8101871362001da657600080fd5b62001db78782356020840162001b34565b91505092959194509250565b6000806040838503121562001dd757600080fd5b62001de28362001a5b565b915062001df26020840162001a5b565b90509250929050565b600181811c9082168062001e1057607f821691505b60208210810362001e3157634e487b7160e01b600052602260045260246000fd5b50919050565b60006020828403121562001e4a57600080fd5b81516200107d8162001cf3565b6020808252602e908201527f4552433732313a2063616c6c6572206973206e6f7420746f6b656e206f776e6560408201526d1c881b9bdc88185c1c1c9bdd995960921b606082015260800190565b634e487b7160e01b600052601160045260246000fd5b600081600019048311821515161562001ed85762001ed862001ea5565b500290565b6000835162001ef1818460208801620019cf565b83519083019062001f07818360208801620019cf565b01949350505050565b60608152600062001f256060830186620019fe565b828103602084015262001f398186620019fe565b915050826040830152949350505050565b6000821982111562001f605762001f6062001ea5565b500190565b60006001820162001f7a5762001f7a62001ea5565b5060010190565b634e487b7160e01b600052603260045260246000fd5b60008282101562001fac5762001fac62001ea5565b500390565b634e487b7160e01b600052601260045260246000fd5b60008262001fd95762001fd962001fb1565b500490565b60008262001ff05762001ff062001fb1565b500690565b60208082526032908201527f4552433732313a207472616e7366657220746f206e6f6e20455243373231526560408201527131b2b4bb32b91034b6b83632b6b2b73a32b960711b606082015260800190565b6001600160a01b03858116825284166020820152604081018390526080606082018190526000906200207c90830184620019fe565b9695505050505050565b6000602082840312156200209957600080fd5b81516200107d816200199856fe60806040526006805460ff191660121790553480156200001e57600080fd5b506040516200122d3803806200122d8339810160408190526200004191620003ff565b6200004c33620000b2565b8251620000619060049060208601906200028c565b508151620000779060059060208501906200028c565b506006546000906200008e9060ff16600a62000585565b6200009a908362000596565b9050620000a8338262000102565b505050506200060f565b600080546001600160a01b038381166001600160a01b0319831681178455604051919092169283917f8be0079c531659141344cd1fd0a4f28419497f9722a3daafe3b4186f6b6457e09190a35050565b6200010c62000217565b6001600160a01b038216620001685760405162461bcd60e51b815260206004820152601f60248201527f45524332303a206d696e7420746f20746865207a65726f20616464726573730060448201526064015b60405180910390fd5b62000184816003546200027560201b620006241790919060201c565b6003556001600160a01b038216600090815260016020908152604090912054620001b99183906200062462000275821b17901c565b6001600160a01b0383166000818152600160205260408082209390935591519091907fddf252ad1be2c89b69c2b068fc378daa952ba7f163c4a11628f55a4df523b3ef906200020b9085815260200190565b60405180910390a35050565b6000546001600160a01b03163314620002735760405162461bcd60e51b815260206004820181905260248201527f4f776e61626c653a2063616c6c6572206973206e6f7420746865206f776e657260448201526064016200015f565b565b6000620002838284620005b8565b90505b92915050565b8280546200029a90620005d3565b90600052602060002090601f016020900481019282620002be576000855562000309565b82601f10620002d957805160ff191683800117855562000309565b8280016001018555821562000309579182015b8281111562000309578251825591602001919060010190620002ec565b50620003179291506200031b565b5090565b5b808211156200031757600081556001016200031c565b634e487b7160e01b600052604160045260246000fd5b600082601f8301126200035a57600080fd5b81516001600160401b038082111562000377576200037762000332565b604051601f8301601f19908116603f01168101908282118183101715620003a257620003a262000332565b81604052838152602092508683858801011115620003bf57600080fd5b600091505b83821015620003e35785820183015181830184015290820190620003c4565b83821115620003f55760008385830101525b9695505050505050565b6000806000606084860312156200041557600080fd5b83516001600160401b03808211156200042d57600080fd5b6200043b8783880162000348565b945060208601519150808211156200045257600080fd5b50620004618682870162000348565b925050604084015190509250925092565b634e487b7160e01b600052601160045260246000fd5b600181815b80851115620004c9578160001904821115620004ad57620004ad62000472565b80851615620004bb57918102915b93841c93908002906200048d565b509250929050565b600082620004e25750600162000286565b81620004f15750600062000286565b81600181146200050a5760028114620005155762000535565b600191505062000286565b60ff84111562000529576200052962000472565b50506001821b62000286565b5060208310610133831016604e8410600b84101617156200055a575081810a62000286565b62000566838362000488565b80600019048211156200057d576200057d62000472565b029392505050565b60006200028360ff841683620004d1565b6000816000190483118215151615620005b357620005b362000472565b500290565b60008219821115620005ce57620005ce62000472565b500190565b600181811c90821680620005e857607f821691505b6020821081036200060957634e487b7160e01b600052602260045260246000fd5b50919050565b610c0e806200061f6000396000f3fe608060405234801561001057600080fd5b50600436106100f55760003560e01c8063715018a6116100975780639dc29fac116100665780639dc29fac146101f9578063a9059cbb1461020c578063dd62ed3e1461021f578063f2fde38b1461025857600080fd5b8063715018a6146101b3578063893d20e8146101bb5780638da5cb5b146101e057806395d89b41146101f157600080fd5b806323b872dd116100d357806323b872dd1461014d578063313ce5671461016057806340c10f191461017557806370a082311461018a57600080fd5b806306fdde03146100fa578063095ea7b31461011857806318160ddd1461013b575b600080fd5b61010261026b565b60405161010f91906109c4565b60405180910390f35b61012b610126366004610a35565b6102fd565b604051901515815260200161010f565b6003545b60405190815260200161010f565b61012b61015b366004610a5f565b610313565b60065460405160ff909116815260200161010f565b610188610183366004610a35565b61037c565b005b61013f610198366004610a9b565b6001600160a01b031660009081526001602052604090205490565b61018861046f565b6000546001600160a01b03165b6040516001600160a01b03909116815260200161010f565b6000546001600160a01b03166101c8565b610102610483565b610188610207366004610a35565b610492565b61012b61021a366004610a35565b61059e565b61013f61022d366004610ab6565b6001600160a01b03918216600090815260026020908152604080832093909416825291909152205490565b610188610266366004610a9b565b6105ab565b60606004805461027a90610ae9565b80601f01602080910402602001604051908101604052809291908181526020018280546102a690610ae9565b80156102f35780601f106102c8576101008083540402835291602001916102f3565b820191906000526020600020905b8154815290600101906020018083116102d657829003601f168201915b5050505050905090565b600061030a338484610637565b50600192915050565b600061032084848461075c565b610372843361036d85604051806060016040528060288152602001610bb1602891396001600160a01b038a16600090815260026020908152604080832033845290915290205491906108e2565b610637565b5060019392505050565b61038461090e565b6001600160a01b0382166103df5760405162461bcd60e51b815260206004820152601f60248201527f45524332303a206d696e7420746f20746865207a65726f20616464726573730060448201526064015b60405180910390fd5b6003546103ec9082610624565b6003556001600160a01b0382166000908152600160205260409020546104129082610624565b6001600160a01b0383166000818152600160205260408082209390935591519091907fddf252ad1be2c89b69c2b068fc378daa952ba7f163c4a11628f55a4df523b3ef906104639085815260200190565b60405180910390a35050565b61047761090e565b6104816000610968565b565b60606005805461027a90610ae9565b61049a61090e565b6001600160a01b0382166104fa5760405162461bcd60e51b815260206004820152602160248201527f45524332303a206275726e2066726f6d20746865207a65726f206164647265736044820152607360f81b60648201526084016103d6565b61053781604051806060016040528060228152602001610b69602291396001600160a01b03851660009081526001602052604090205491906108e2565b6001600160a01b03831660009081526001602052604090205560035461055d90826109b8565b6003556040518181526000906001600160a01b038416907fddf252ad1be2c89b69c2b068fc378daa952ba7f163c4a11628f55a4df523b3ef90602001610463565b600061030a33848461075c565b6105b361090e565b6001600160a01b0381166106185760405162461bcd60e51b815260206004820152602660248201527f4f776e61626c653a206e6577206f776e657220697320746865207a65726f206160448201526564647265737360d01b60648201526084016103d6565b61062181610968565b50565b60006106308284610b39565b9392505050565b6001600160a01b0383166106995760405162461bcd60e51b8152602060048201526024808201527f45524332303a20617070726f76652066726f6d20746865207a65726f206164646044820152637265737360e01b60648201526084016103d6565b6001600160a01b0382166106fa5760405162461bcd60e51b815260206004820152602260248201527f45524332303a20617070726f766520746f20746865207a65726f206164647265604482015261737360f01b60648201526084016103d6565b6001600160a01b0383811660008181526002602090815260408083209487168084529482529182902085905590518481527f8c5be1e5ebec7d5bd14f71427d1e84f3dd0314c0f7b2291e5b200ac8c7c3b92591015b60405180910390a3505050565b6001600160a01b0383166107c05760405162461bcd60e51b815260206004820152602560248201527f45524332303a207472616e736665722066726f6d20746865207a65726f206164604482015264647265737360d81b60648201526084016103d6565b6001600160a01b0382166108225760405162461bcd60e51b815260206004820152602360248201527f45524332303a207472616e7366657220746f20746865207a65726f206164647260448201526265737360e81b60648201526084016103d6565b61085f81604051806060016040528060268152602001610b8b602691396001600160a01b03861660009081526001602052604090205491906108e2565b6001600160a01b03808516600090815260016020526040808220939093559084168152205461088e9082610624565b6001600160a01b0380841660008181526001602052604090819020939093559151908516907fddf252ad1be2c89b69c2b068fc378daa952ba7f163c4a11628f55a4df523b3ef9061074f9085815260200190565b600081848411156109065760405162461bcd60e51b81526004016103d691906109c4565b505050900390565b6000546001600160a01b031633146104815760405162461bcd60e51b815260206004820181905260248201527f4f776e61626c653a2063616c6c6572206973206e6f7420746865206f776e657260448201526064016103d6565b600080546001600160a01b038381166001600160a01b0319831681178455604051919092169283917f8be0079c531659141344cd1fd0a4f28419497f9722a3daafe3b4186f6b6457e09190a35050565b60006106308284610b51565b600060208083528351808285015260005b818110156109f1578581018301518582016040015282016109d5565b81811115610a03576000604083870101525b50601f01601f1916929092016040019392505050565b80356001600160a01b0381168114610a3057600080fd5b919050565b60008060408385031215610a4857600080fd5b610a5183610a19565b946020939093013593505050565b600080600060608486031215610a7457600080fd5b610a7d84610a19565b9250610a8b60208501610a19565b9150604084013590509250925092565b600060208284031215610aad57600080fd5b61063082610a19565b60008060408385031215610ac957600080fd5b610ad283610a19565b9150610ae060208401610a19565b90509250929050565b600181811c90821680610afd57607f821691505b602082108103610b1d57634e487b7160e01b600052602260045260246000fd5b50919050565b634e487b7160e01b600052601160045260246000fd5b60008219821115610b4c57610b4c610b23565b500190565b600082821015610b6357610b63610b23565b50039056fe45524332303a206275726e20616d6f756e7420657863656564732062616c616e636545524332303a207472616e7366657220616d6f756e7420657863656564732062616c616e636545524332303a207472616e7366657220616d6f756e74206578636565647320616c6c6f77616e6365a2646970667358221220f95327393f499104cf047e022d99130e4c01fea9cfcf349414b45f5576e37ff164736f6c634300080d0033a2646970667358221220b159e95e47028c65c44e0143ce18afc41fbe9670afd1a7755828a60d4089bcf864736f6c634300080d0033",
  "immutableReferences": {},
  "source": "// SPDX-License-Identifier: MIT\r\npragma solidity >=0.4.22 <0.9.0;\r\n\r\nimport \"@openzeppelin/contracts/token/ERC721/extensions/ERC721URIStorage.sol\";\r\nimport \"@openzeppelin/contracts/utils/Counters.sol\";\r\nimport \"@openzeppelin/contracts/utils/Strings.sol\";\r\nimport \"@openzeppelin/contracts/utils/math/SafeMath.sol\";\r\n// import \"@nomiclabs/builder/console.sol\";\r\n\r\nimport \"./ERC20.sol\";\r\n\r\ncontract Fractional is ERC721URIStorage {\r\n    using SafeMath for uint256;\r\n    /* immutable address datatype which indicates where the value\r\n    assigned to a variable cannot be changed*/\r\n\r\n    address immutable _platformAdmin;\r\n\r\n    //counters for incrementing token ids\r\n\r\n    using Counters for Counters.Counter;\r\n    Counters.Counter private _tokenIds;\r\n\r\n    //mapping the address of admin\r\n    mapping(address => uint256) public Track;\r\n\r\n    struct NFT {\r\n        uint256 tokenID;\r\n        address payable owner;\r\n        uint256 price;\r\n    }\r\n\r\n    mapping(uint256 => NFT) public idToNFT;\r\n\r\n    // NFT ID => owner\r\n    mapping(uint256 => address payable) idToOwner;\r\n    // NFT ID => Price\r\n    mapping(uint256 => uint256) public idToPrice;\r\n    // NFT ID => share value\r\n    mapping(uint256 => uint256) public idToShareValue;\r\n    // NFT id => ERC20 share\r\n    mapping(uint256 => ERC20) public idToShare;\r\n\r\n\r\n\r\n    // constructor to give a structure for (NFT SYMBOL AND NAME)\r\n    constructor(string memory _name, string memory _symbol)\r\n        ERC721(_name, _symbol)\r\n    {\r\n        _platformAdmin = msg.sender;\r\n    }\r\n\r\n\r\n\r\n    //Creating a modifier for onlhy admin access\r\n\r\n\r\n    modifier onlyPlatformAdmin() {\r\n        require(_platformAdmin == msg.sender, \"Invalid operation\");\r\n        _;\r\n    }\r\n\r\n\r\n\r\n    //function to create NFT which takes input as address of the reciever and a tokenuri as counter\r\n    function _create(address receiver, string memory _tokenURI)\r\n        internal\r\n        returns (uint256)\r\n    {\r\n        //current token id stored in newItemId\r\n        \r\n        uint256 newItemId = _tokenIds.current(); \r\n\r\n\r\n        // Minting of NFT with parameters, receiver i.e address of reciever and the cuurent token ID\r\n        _mint(receiver, newItemId);\r\n\r\n\r\n\r\n        _setTokenURI(newItemId, _tokenURI);\r\n        Track[receiver] = newItemId;\r\n\r\n        _tokenIds.increment();\r\n        return newItemId;\r\n    }\r\n\r\n    function _transferNFT(\r\n        address _sender,\r\n        address _receiver,\r\n        uint256 _tokenId,\r\n        string memory _tokenURI\r\n    ) internal {\r\n        _transfer(_sender, _receiver, _tokenId);\r\n        _setTokenURI(_tokenId, _tokenURI);\r\n\r\n        // update mappings\r\n        delete Track[_sender];\r\n        Track[_receiver] = _tokenId;\r\n    }\r\n\r\n    // create NFT from fractional contract\r\n    function createNFT(string memory _tokenURI, uint256 _price)\r\n        public\r\n    {\r\n        // create NFT\r\n        uint256 _tokenID = _create(msg.sender, _tokenURI);\r\n\r\n        // update mapping\r\n        idToPrice[_tokenID] = _price * 1e18;\r\n        idToOwner[_tokenID] = payable(msg.sender);\r\n        idToNFT[_tokenID] = NFT(_tokenID, idToOwner[_tokenID], idToPrice[_tokenID]);\r\n    }\r\n\r\n    // lock NFT in fractional contract\r\n    function lockNFT(\r\n        uint256 _tokenID,\r\n        string memory _tokenURI,\r\n        uint256 _sharesAmount\r\n    ) public {\r\n        // transfer NFT to contract\r\n        _transferNFT(msg.sender, address(this), _tokenID, _tokenURI);\r\n\r\n        // mint & transfer ERC20 to contract\r\n        // set name of new token\r\n        string memory tokenID = Strings.toString(_tokenID);\r\n        string memory _tokenName = \"FractionNFT\";\r\n        string memory tokenName = string(abi.encodePacked(_tokenName, tokenID));\r\n\r\n        // set symbol of new token\r\n        string memory _tokenSymbol = \"FNFT\";\r\n        string memory tokenSymbol = string(\r\n            abi.encodePacked(_tokenSymbol, tokenID)\r\n        );\r\n\r\n        // create new token\r\n        ERC20 fToken = new ERC20(tokenName, tokenSymbol, _sharesAmount);\r\n\r\n        // transfer tokens to this contract address\r\n        fToken.transfer(address(this), _sharesAmount);\r\n        // update mapping\r\n        idToShare[_tokenID] = fToken;\r\n\r\n        // update share value\r\n        uint256 _price = idToPrice[_tokenID];\r\n        idToShareValue[_tokenID] = _price.div(_sharesAmount);\r\n    }\r\n\r\n    // function for user to buy shares of NFT and hold ERC20 as validation token of the purchase\r\n    function buyFractionalShares(uint256 _tokenID, uint256 _totalShares , address _lender)\r\n        public\r\n        payable\r\n    {\r\n        require(\r\n            msg.value >= idToShareValue[_tokenID].mul(_totalShares),\r\n            \"Insufficient funds\"\r\n        );\r\n\r\n        // user sends ETH to owner\r\n       // address payable nftOwner = idToOwner[_tokenID];\r\n        uint256 _amount = idToShareValue[_tokenID].mul(_totalShares);\r\n      //  nftOwner.transfer(_amount);\r\n\r\n        idToShare[_tokenID].transfer(_lender, _totalShares);\r\n        \r\n    }\r\n\r\n    function fetchNFTs() public view returns (NFT[] memory) {\r\n        uint256 totalItemCount = _tokenIds.current();\r\n        uint256 itemCount = 0;\r\n        uint256 currentIndex = 0;\r\n\r\n        for (uint256 i = 0; i < totalItemCount; i++) {\r\n            if (idToNFT[i + 1].owner == msg.sender) {\r\n                itemCount += 1;\r\n            }\r\n        }\r\n\r\n        NFT[] memory items = new NFT[](itemCount);\r\n        for (uint256 i = 0; i < totalItemCount; i++) {\r\n            if (idToNFT[i + 1].owner == msg.sender) {\r\n                uint256 currentId = i + 1;\r\n                NFT storage currentItem = idToNFT[currentId];\r\n                items[currentIndex] = currentItem;\r\n                currentIndex += 1;\r\n            }\r\n        }\r\n        return items;\r\n    }\r\n}",
  "sourcePath": "F:\\LOAN GIT\\Lend3.0\\contracts\\Fractional.sol",
  "compiler": {
    "name": "solc",
    "version": "0.8.13+commit.abaa5c0e.Emscripten.clang"
  },
  "schemaVersion": "3.4.10",
  "updatedAt": "2022-10-31T14:33:55.673Z",
  "networkType": "ethereum",
  "devdoc": {
    "kind": "dev",
    "methods": {
      "approve(address,uint256)": {
        "details": "See {IERC721-approve}."
      },
      "balanceOf(address)": {
        "details": "See {IERC721-balanceOf}."
      },
      "getApproved(uint256)": {
        "details": "See {IERC721-getApproved}."
      },
      "isApprovedForAll(address,address)": {
        "details": "See {IERC721-isApprovedForAll}."
      },
      "name()": {
        "details": "See {IERC721Metadata-name}."
      },
      "ownerOf(uint256)": {
        "details": "See {IERC721-ownerOf}."
      },
      "safeTransferFrom(address,address,uint256)": {
        "details": "See {IERC721-safeTransferFrom}."
      },
      "safeTransferFrom(address,address,uint256,bytes)": {
        "details": "See {IERC721-safeTransferFrom}."
      },
      "setApprovalForAll(address,bool)": {
        "details": "See {IERC721-setApprovalForAll}."
      },
      "supportsInterface(bytes4)": {
        "details": "See {IERC165-supportsInterface}."
      },
      "symbol()": {
        "details": "See {IERC721Metadata-symbol}."
      },
      "tokenURI(uint256)": {
        "details": "See {IERC721Metadata-tokenURI}."
      },
      "transferFrom(address,address,uint256)": {
        "details": "See {IERC721-transferFrom}."
      }
    },
    "version": 1
  },
  "userdoc": {
    "kind": "user",
    "methods": {},
    "version": 1
  }
}