{
  "contractName": "Lending",
  "abi": [
    {
      "inputs": [
        {
          "internalType": "uint256",
          "name": "",
          "type": "uint256"
        }
      ],
      "name": "loanToLender",
      "outputs": [
        {
          "internalType": "address",
          "name": "",
          "type": "address"
        }
      ],
      "stateMutability": "view",
      "type": "function",
      "constant": true
    },
    {
      "inputs": [
        {
          "internalType": "uint256",
          "name": "",
          "type": "uint256"
        }
      ],
      "name": "loans",
      "outputs": [
        {
          "internalType": "uint256",
          "name": "loanId",
          "type": "uint256"
        },
        {
          "internalType": "address",
          "name": "lender",
          "type": "address"
        },
        {
          "internalType": "uint256",
          "name": "loanAmount",
          "type": "uint256"
        },
        {
          "internalType": "uint256",
          "name": "interestRate",
          "type": "uint256"
        },
        {
          "internalType": "uint256",
          "name": "proposalId",
          "type": "uint256"
        },
        {
          "internalType": "uint256",
          "name": "time",
          "type": "uint256"
        },
        {
          "internalType": "enum Lending.LoanState",
          "name": "state",
          "type": "uint8"
        }
      ],
      "stateMutability": "view",
      "type": "function",
      "constant": true
    },
    {
      "inputs": [
        {
          "internalType": "uint256",
          "name": "",
          "type": "uint256"
        }
      ],
      "name": "potential_lenders",
      "outputs": [
        {
          "internalType": "uint256",
          "name": "loanId",
          "type": "uint256"
        },
        {
          "internalType": "address",
          "name": "lender",
          "type": "address"
        },
        {
          "internalType": "uint256",
          "name": "loanAmount",
          "type": "uint256"
        },
        {
          "internalType": "uint256",
          "name": "interestRate",
          "type": "uint256"
        },
        {
          "internalType": "uint256",
          "name": "proposalId",
          "type": "uint256"
        },
        {
          "internalType": "uint256",
          "name": "time",
          "type": "uint256"
        },
        {
          "internalType": "enum Lending.LoanState",
          "name": "state",
          "type": "uint8"
        }
      ],
      "stateMutability": "view",
      "type": "function",
      "constant": true
    },
    {
      "inputs": [
        {
          "internalType": "uint256",
          "name": "",
          "type": "uint256"
        }
      ],
      "name": "proposalToBorrower",
      "outputs": [
        {
          "internalType": "address",
          "name": "",
          "type": "address"
        }
      ],
      "stateMutability": "view",
      "type": "function",
      "constant": true
    },
    {
      "inputs": [
        {
          "internalType": "uint256",
          "name": "",
          "type": "uint256"
        }
      ],
      "name": "proposals",
      "outputs": [
        {
          "internalType": "uint256",
          "name": "proposalId",
          "type": "uint256"
        },
        {
          "internalType": "address",
          "name": "borrower",
          "type": "address"
        },
        {
          "internalType": "uint256",
          "name": "amount",
          "type": "uint256"
        },
        {
          "internalType": "uint256",
          "name": "time",
          "type": "uint256"
        },
        {
          "internalType": "string",
          "name": "mortgage",
          "type": "string"
        },
        {
          "internalType": "enum Lending.ProposalState",
          "name": "state",
          "type": "uint8"
        },
        {
          "internalType": "bool",
          "name": "sendMoney",
          "type": "bool"
        }
      ],
      "stateMutability": "view",
      "type": "function",
      "constant": true
    },
    {
      "inputs": [
        {
          "internalType": "uint256",
          "name": "_loanAmount",
          "type": "uint256"
        },
        {
          "internalType": "uint256",
          "name": "_time",
          "type": "uint256"
        },
        {
          "internalType": "string",
          "name": "_mortgage",
          "type": "string"
        }
      ],
      "name": "createProposal",
      "outputs": [],
      "stateMutability": "nonpayable",
      "type": "function"
    },
    {
      "inputs": [
        {
          "internalType": "uint256",
          "name": "_loanAmount",
          "type": "uint256"
        },
        {
          "internalType": "uint256",
          "name": "_interestRate",
          "type": "uint256"
        },
        {
          "internalType": "uint256",
          "name": "_proposalId",
          "type": "uint256"
        }
      ],
      "name": "acceptProposal",
      "outputs": [],
      "stateMutability": "nonpayable",
      "type": "function"
    },
    {
      "inputs": [],
      "name": "sendETHtoContract",
      "outputs": [],
      "stateMutability": "payable",
      "type": "function",
      "payable": true
    },
    {
      "inputs": [],
      "name": "getAllPotentialLenders",
      "outputs": [
        {
          "components": [
            {
              "internalType": "uint256",
              "name": "loanId",
              "type": "uint256"
            },
            {
              "internalType": "address",
              "name": "lender",
              "type": "address"
            },
            {
              "internalType": "uint256",
              "name": "loanAmount",
              "type": "uint256"
            },
            {
              "internalType": "uint256",
              "name": "interestRate",
              "type": "uint256"
            },
            {
              "internalType": "uint256",
              "name": "proposalId",
              "type": "uint256"
            },
            {
              "internalType": "uint256",
              "name": "time",
              "type": "uint256"
            },
            {
              "internalType": "enum Lending.LoanState",
              "name": "state",
              "type": "uint8"
            }
          ],
          "internalType": "struct Lending.Loan[]",
          "name": "",
          "type": "tuple[]"
        }
      ],
      "stateMutability": "view",
      "type": "function",
      "constant": true
    },
    {
      "inputs": [],
      "name": "getAllProposals",
      "outputs": [
        {
          "components": [
            {
              "internalType": "uint256",
              "name": "proposalId",
              "type": "uint256"
            },
            {
              "internalType": "address",
              "name": "borrower",
              "type": "address"
            },
            {
              "internalType": "uint256",
              "name": "amount",
              "type": "uint256"
            },
            {
              "internalType": "uint256",
              "name": "time",
              "type": "uint256"
            },
            {
              "internalType": "string",
              "name": "mortgage",
              "type": "string"
            },
            {
              "internalType": "enum Lending.ProposalState",
              "name": "state",
              "type": "uint8"
            },
            {
              "internalType": "bool",
              "name": "sendMoney",
              "type": "bool"
            }
          ],
          "internalType": "struct Lending.Proposal[]",
          "name": "",
          "type": "tuple[]"
        }
      ],
      "stateMutability": "view",
      "type": "function",
      "constant": true
    },
    {
      "inputs": [],
      "name": "getAllLoans",
      "outputs": [
        {
          "components": [
            {
              "internalType": "uint256",
              "name": "loanId",
              "type": "uint256"
            },
            {
              "internalType": "address",
              "name": "lender",
              "type": "address"
            },
            {
              "internalType": "uint256",
              "name": "loanAmount",
              "type": "uint256"
            },
            {
              "internalType": "uint256",
              "name": "interestRate",
              "type": "uint256"
            },
            {
              "internalType": "uint256",
              "name": "proposalId",
              "type": "uint256"
            },
            {
              "internalType": "uint256",
              "name": "time",
              "type": "uint256"
            },
            {
              "internalType": "enum Lending.LoanState",
              "name": "state",
              "type": "uint8"
            }
          ],
          "internalType": "struct Lending.Loan[]",
          "name": "",
          "type": "tuple[]"
        }
      ],
      "stateMutability": "view",
      "type": "function",
      "constant": true
    },
    {
      "inputs": [
        {
          "internalType": "uint256",
          "name": "_loanId",
          "type": "uint256"
        },
        {
          "internalType": "uint256",
          "name": "_proposalId",
          "type": "uint256"
        }
      ],
      "name": "acceptLender",
      "outputs": [],
      "stateMutability": "nonpayable",
      "type": "function"
    },
    {
      "inputs": [
        {
          "internalType": "uint256",
          "name": "_loanId",
          "type": "uint256"
        }
      ],
      "name": "loanPaid",
      "outputs": [],
      "stateMutability": "nonpayable",
      "type": "function"
    }
  ],
  "bytecode": "0x608060405234801561001057600080fd5b5061120a806100206000396000f3fe6080604052600436106100c25760003560e01c8063a5bfd16a1161007f578063c54f3eae11610059578063c54f3eae14610233578063cceb68f514610253578063e1ec3c6814610275578063e8aaf9881461029557600080fd5b8063a5bfd16a146101c8578063b99c56c5146101dd578063bc254c001461021357600080fd5b80630133e1d8146100c7578063013cf08b146100e957806342495937146100e757806346df1347146101255780637028122d146101585780639dfe47cd146101a6575b600080fd5b3480156100d357600080fd5b506100e76100e2366004610dc1565b6102b5565b005b3480156100f557600080fd5b50610109610104366004610ded565b6104bd565b60405161011c9796959493929190610e7d565b60405180910390f35b34801561013157600080fd5b50610145610140366004610ded565b6105a6565b60405161011c9796959493929190610ee3565b34801561016457600080fd5b5061018e610173366004610ded565b6004602052600090815260409020546001600160a01b031681565b6040516001600160a01b03909116815260200161011c565b3480156101b257600080fd5b506101bb610602565b60405161011c9190610f2e565b3480156101d457600080fd5b506101bb6106da565b3480156101e957600080fd5b5061018e6101f8366004610ded565b6003602052600090815260409020546001600160a01b031681565b34801561021f57600080fd5b506100e761022e366004610fc5565b6107a9565b34801561023f57600080fd5b506100e761024e366004610ded565b6109c0565b34801561025f57600080fd5b50610268610a0a565b60405161011c9190610fe7565b34801561028157600080fd5b50610145610290366004610ded565b610b70565b3480156102a157600080fd5b506100e76102b03660046110c0565b610b80565b600180546040805160e081018252828152336020820190815291810187815260608201878152608083018781524260a08501908152600260c086019081528789018955600089905285517fb10e2d527612073b26eecdfd717e6a320cf44b4afac2b0732d9fcbe2b7fa0cf660078a0290810191825597517fb10e2d527612073b26eecdfd717e6a320cf44b4afac2b0732d9fcbe2b7fa0cf7890180546001600160a01b0319166001600160a01b0390921691909117905594517fb10e2d527612073b26eecdfd717e6a320cf44b4afac2b0732d9fcbe2b7fa0cf888015592517fb10e2d527612073b26eecdfd717e6a320cf44b4afac2b0732d9fcbe2b7fa0cf987015590517fb10e2d527612073b26eecdfd717e6a320cf44b4afac2b0732d9fcbe2b7fa0cfa860155517fb10e2d527612073b26eecdfd717e6a320cf44b4afac2b0732d9fcbe2b7fa0cfb850155517fb10e2d527612073b26eecdfd717e6a320cf44b4afac2b0732d9fcbe2b7fa0cfc909301805494959294919392909160ff19169083600481111561044a5761044a610e53565b02179055505050600081815260046020526040812080546001600160a01b031916331790558054600191908490811061048557610485611184565b60009182526020909120600560069092020101805460ff191660018360028111156104b2576104b2610e53565b021790555050505050565b600081815481106104cd57600080fd5b6000918252602090912060069091020180546001820154600283015460038401546004850180549496506001600160a01b039093169491939092906105119061119a565b80601f016020809104026020016040519081016040528092919081815260200182805461053d9061119a565b801561058a5780601f1061055f5761010080835404028352916020019161058a565b820191906000526020600020905b81548152906001019060200180831161056d57829003601f168201915b5050506005909301549192505060ff8082169161010090041687565b600181815481106105b657600080fd5b600091825260209091206007909102018054600182015460028301546003840154600485015460058601546006909601549496506001600160a01b039093169491939092919060ff1687565b60606001805480602002602001604051908101604052809291908181526020016000905b828210156106d15760008481526020908190206040805160e081018252600786029092018054835260018101546001600160a01b031693830193909352600283015490820152600382015460608201526004808301546080830152600583015460a0830152600683015491929160c084019160ff909116908111156106ad576106ad610e53565b60048111156106be576106be610e53565b8152505081526020019060010190610626565b50505050905090565b60606002805480602002602001604051908101604052809291908181526020016000905b828210156106d15760008481526020908190206040805160e081018252600786029092018054835260018101546001600160a01b031693830193909352600283015490820152600382015460608201526004808301546080830152600583015460a0830152600683015491929160c084019160ff9091169081111561078557610785610e53565b600481111561079657610796610e53565b81525050815260200190600101906106fe565b6040805160e08101825283815260008481526004602090815290839020546001600160a01b0316908201526001805460029383019190869081106107ef576107ef611184565b90600052602060002090600702016002015481526020016001858154811061081957610819611184565b90600052602060002090600702016003015481526020018381526020014281526020016003600481111561084f5761084f610e53565b9052815460018082018455600093845260209384902083516007909302019182559282015181840180546001600160a01b0319166001600160a01b039092169190911790556040820151600282015560608201516003820155608082015160048083019190915560a0830151600583015560c0830151600683018054949593949193909260ff199092169184908111156108eb576108eb610e53565b02179055505050600080828154811061090657610906611184565b60009182526020909120600560069092020101805460ff1916600183600281111561093357610933610e53565b021790555060036001838154811061094d5761094d611184565b60009182526020909120600660079092020101805460ff1916600183600481111561097a5761097a610e53565b021790555060016000828154811061099457610994611184565b906000526020600020906006020160050160016101000a81548160ff0219169083151502179055505050565b6000600182815481106109d5576109d5611184565b60009182526020909120600660079092020101805460ff19166001836004811115610a0257610a02610e53565b021790555050565b60606000805480602002602001604051908101604052809291908181526020016000905b828210156106d15760008481526020908190206040805160e081018252600686029092018054835260018101546001600160a01b03169383019390935260028301549082015260038201546060820152600482018054919291608084019190610a969061119a565b80601f0160208091040260200160405190810160405280929190818152602001828054610ac29061119a565b8015610b0f5780601f10610ae457610100808354040283529160200191610b0f565b820191906000526020600020905b815481529060010190602001808311610af257829003601f168201915b5050509183525050600582015460209091019060ff166002811115610b3657610b36610e53565b6002811115610b4757610b47610e53565b815260059190910154610100900460ff1615156020918201529082526001929092019101610a2e565b600281815481106105b657600080fd5b600080546040805160e0810182528281523360208083019182529282018881526060830188815260808401888152600260a086015260c0850188905260018701885596805283517f290decd9548b62a8d60345a988386fc84ba6bc95484008f6362f93160ef3e5636006880290810191825593517f290decd9548b62a8d60345a988386fc84ba6bc95484008f6362f93160ef3e564850180546001600160a01b0319166001600160a01b0390921691909117905591517f290decd9548b62a8d60345a988386fc84ba6bc95484008f6362f93160ef3e565840155517f290decd9548b62a8d60345a988386fc84ba6bc95484008f6362f93160ef3e56683015594518051949592949293610cba937f290decd9548b62a8d60345a988386fc84ba6bc95484008f6362f93160ef3e56790930192910190610d28565b5060a082015160058201805460ff19166001836002811115610cde57610cde610e53565b021790555060c09190910151600590910180549115156101000261ff0019909216919091179055600090815260036020526040902080546001600160a01b03191633179055505050565b828054610d349061119a565b90600052602060002090601f016020900481019282610d565760008555610d9c565b82601f10610d6f57805160ff1916838001178555610d9c565b82800160010185558215610d9c579182015b82811115610d9c578251825591602001919060010190610d81565b50610da8929150610dac565b5090565b5b80821115610da85760008155600101610dad565b600080600060608486031215610dd657600080fd5b505081359360208301359350604090920135919050565b600060208284031215610dff57600080fd5b5035919050565b6000815180845260005b81811015610e2c57602081850181015186830182015201610e10565b81811115610e3e576000602083870101525b50601f01601f19169290920160200192915050565b634e487b7160e01b600052602160045260246000fd5b60038110610e7957610e79610e53565b9052565b87815260018060a01b038716602082015285604082015284606082015260e060808201526000610eb060e0830186610e06565b9050610ebf60a0830185610e69565b82151560c083015298975050505050505050565b60058110610e7957610e79610e53565b8781526001600160a01b038716602082015260408101869052606081018590526080810184905260a0810183905260e08101610f2260c0830184610ed3565b98975050505050505050565b602080825282518282018190526000919060409081850190868401855b82811015610fb857815180518552868101516001600160a01b0316878601528581015186860152606080820151908601526080808201519086015260a0808201519086015260c09081015190610fa381870183610ed3565b505060e0939093019290850190600101610f4b565b5091979650505050505050565b60008060408385031215610fd857600080fd5b50508035926020909101359150565b60006020808301818452808551808352604092508286019150828160051b87010184880160005b8381101561109c57888303603f19018552815180518452878101516001600160a01b03168885015286810151878501526060808201519085015260808082015160e0828701819052919061106483880182610e06565b9250505060a08083015161107a82880182610e69565b505060c09182015115159490910193909352938601939086019060010161100e565b509098975050505050505050565b634e487b7160e01b600052604160045260246000fd5b6000806000606084860312156110d557600080fd5b8335925060208401359150604084013567ffffffffffffffff808211156110fb57600080fd5b818601915086601f83011261110f57600080fd5b813581811115611121576111216110aa565b604051601f8201601f19908116603f01168101908382118183101715611149576111496110aa565b8160405282815289602084870101111561116257600080fd5b8260208601602083013760006020848301015280955050505050509250925092565b634e487b7160e01b600052603260045260246000fd5b600181811c908216806111ae57607f821691505b6020821081036111ce57634e487b7160e01b600052602260045260246000fd5b5091905056fea26469706673582212205a880f0d5f5c77bd337ffb5fe7857a829a0de70b162d0046ec8a131c17fd2f0a64736f6c634300080d0033",
  "immutableReferences": {},
  "source": "// SPDX-License-Identifier: MIT\r\npragma solidity >=0.4.22 <0.9.0;\r\npragma experimental ABIEncoderV2;\r\n\r\nimport \"./SafeMath.sol\";\r\n\r\ncontract Lending {\r\n    using SafeMath for uint256;\r\n    using SafeMath for uint256;\r\n\r\n    enum ProposalState {\r\n        ACCEPTED,\r\n        ACCEPTING,\r\n        WAITING\r\n    }\r\n    enum LoanState {\r\n        REPAID,\r\n        ACCEPTED,\r\n        WAITING,\r\n        PAID,\r\n        FAILED\r\n    }\r\n\r\n    // borrower\r\n    struct Proposal {\r\n        uint256 proposalId;\r\n        address borrower;\r\n        uint256 amount;\r\n        uint256 time;\r\n        string mortgage;\r\n        ProposalState state;\r\n        bool sendMoney;\r\n    }\r\n\r\n    struct Loan {\r\n        uint256 loanId;\r\n        address lender;\r\n        uint256 loanAmount;\r\n        uint256 interestRate;\r\n        uint256 proposalId; // not sure?\r\n        uint256 time;\r\n        LoanState state;\r\n    }\r\n\r\n    Proposal[] public proposals;\r\n    Loan[] public potential_lenders;\r\n    Loan[] public loans;\r\n\r\n    mapping(uint256 => address) public proposalToBorrower;\r\n    mapping(uint256 => address) public loanToLender;\r\n\r\n    function createProposal(\r\n        uint256 _loanAmount,\r\n        uint256 _time,\r\n        string memory _mortgage\r\n    ) public {\r\n        //change loanAmount to amount?\r\n        uint256 _proposalId = proposals.length;\r\n        proposals.push(\r\n            Proposal(\r\n                _proposalId,\r\n                msg.sender,\r\n                _loanAmount,\r\n                _time,\r\n                _mortgage,\r\n                ProposalState.WAITING,\r\n                false\r\n            )\r\n        );\r\n\r\n        proposalToBorrower[_proposalId] = msg.sender;\r\n    }\r\n\r\n    function acceptProposal(\r\n        uint256 _loanAmount,\r\n        uint256 _interestRate,\r\n        uint256 _proposalId\r\n    ) public {\r\n        uint256 _loanId = potential_lenders.length;\r\n        potential_lenders.push(\r\n            Loan(\r\n                _loanId,\r\n                msg.sender,\r\n                _loanAmount,\r\n                _interestRate,\r\n                _proposalId,\r\n                block.timestamp,\r\n                LoanState.WAITING\r\n            )\r\n        );\r\n        loanToLender[_loanId] = msg.sender;\r\n        proposals[_proposalId].state = ProposalState.ACCEPTING;\r\n    }\r\n\r\n    function sendETHtoContract() public payable {\r\n        //msg.value is the amount of wei that the msg.sender sent with this transaction.\r\n        //If the transaction doesn't fail, then the contract now has this ETH.\r\n    }\r\n\r\n    function getAllPotentialLenders() public view returns (Loan[] memory) {\r\n        return potential_lenders;\r\n    }\r\n\r\n    function getAllProposals() public view returns (Proposal[] memory) {\r\n        return proposals;\r\n    }\r\n\r\n    function getAllLoans() public view returns (Loan[] memory) {\r\n        return loans;\r\n    }\r\n\r\n    function acceptLender(uint256 _loanId, uint256 _proposalId) public {\r\n        loans.push(\r\n            Loan(\r\n                _loanId,\r\n                loanToLender[_loanId],\r\n                potential_lenders[_loanId].loanAmount,\r\n                potential_lenders[_loanId].interestRate,\r\n                _proposalId,\r\n                block.timestamp,\r\n                LoanState.PAID\r\n            )\r\n        );\r\n\r\n        proposals[_proposalId].state = ProposalState.ACCEPTED;\r\n\r\n        potential_lenders[_loanId].state = LoanState.PAID;\r\n\r\n        proposals[_proposalId].sendMoney = true;\r\n\r\n        // (bool success, ) = msg.sender.call.value(\r\n        //     potential_lenders[_loanId].loanAmount\r\n        // )(\"\");\r\n        // require(success, \"Transfer failed.\");\r\n    }\r\n\r\n    // function repayAmount(uint256 _loanId) public view returns (uint256) {\r\n    //     if (loans[_loanId].state == LoanState.ACCEPTED) {\r\n    //         uint256 startTime = loans[_loanId].time;\r\n    //         uint256 finalAmount = 0;\r\n    //         uint256 principalValue = loans[_loanId].loanAmount;\r\n    //         uint256 paymentTime = block.timestamp;\r\n    //         uint256 interestRate = loans[_loanId].interestRate;\r\n    //         uint256 loanTime = paymentTime - startTime;\r\n\r\n    //         uint256 interest = (\r\n    //             principalValue.mul(interestRate).mul(loanTime)\r\n    //         ) / (365 * 24 * 60 * 60 * 100);\r\n\r\n    //         finalAmount.add(interest);\r\n    //         finalAmount.add(principalValue);\r\n\r\n    //         return finalAmount;\r\n    //     }\r\n    // }\r\n\r\n    function loanPaid(uint256 _loanId) public {\r\n        potential_lenders[_loanId].state = LoanState.REPAID;\r\n    }\r\n}\r\n",
  "sourcePath": "F:\\LOAN GIT\\Lend3.0\\contracts\\Lending.sol",
  "compiler": {
    "name": "solc",
    "version": "0.8.13+commit.abaa5c0e.Emscripten.clang"
  },
  "schemaVersion": "3.4.10",
  "updatedAt": "2022-10-31T14:33:55.654Z",
  "networkType": "ethereum",
  "devdoc": {
    "kind": "dev",
    "methods": {},
    "version": 1
  },
  "userdoc": {
    "kind": "user",
    "methods": {},
    "version": 1
  }
}