{
  "contractName": "Mortgage",
  "abi": [
    {
      "inputs": [],
      "stateMutability": "nonpayable",
      "type": "constructor"
    },
    {
      "inputs": [],
      "name": "borrower",
      "outputs": [
        {
          "internalType": "address",
          "name": "",
          "type": "address"
        }
      ],
      "stateMutability": "view",
      "type": "function"
    },
    {
      "inputs": [
        {
          "internalType": "address",
          "name": "",
          "type": "address"
        }
      ],
      "name": "borrowerToMortgage",
      "outputs": [
        {
          "internalType": "string",
          "name": "",
          "type": "string"
        }
      ],
      "stateMutability": "view",
      "type": "function"
    },
    {
      "inputs": [
        {
          "internalType": "string",
          "name": "",
          "type": "string"
        }
      ],
      "name": "mortgageToBorrower",
      "outputs": [
        {
          "internalType": "address",
          "name": "",
          "type": "address"
        }
      ],
      "stateMutability": "view",
      "type": "function"
    },
    {
      "inputs": [
        {
          "internalType": "string",
          "name": "document",
          "type": "string"
        }
      ],
      "name": "addMortgage",
      "outputs": [],
      "stateMutability": "nonpayable",
      "type": "function"
    }
  ],
  "bytecode": "0x608060405234801561001057600080fd5b50600080546001600160a01b03191633179055610464806100326000396000f3fe608060405234801561001057600080fd5b506004361061004c5760003560e01c80631d99f098146100515780637df1f1b914610066578063cdfec14a14610096578063e74d3964146100ca575b600080fd5b61006461005f366004610294565b6100ea565b005b600054610079906001600160a01b031681565b6040516001600160a01b0390911681526020015b60405180910390f35b6100796100a4366004610294565b80516020818301810180516001825292820191909301209152546001600160a01b031681565b6100dd6100d8366004610345565b61014b565b60405161008d91906103a5565b336001826040516100fb91906103d8565b908152604080516020928190038301902080546001600160a01b0319166001600160a01b03949094169390931790925533600090815260028252919091208251610147928401906101e5565b5050565b60026020526000908152604090208054610164906103f4565b80601f0160208091040260200160405190810160405280929190818152602001828054610190906103f4565b80156101dd5780601f106101b2576101008083540402835291602001916101dd565b820191906000526020600020905b8154815290600101906020018083116101c057829003601f168201915b505050505081565b8280546101f1906103f4565b90600052602060002090601f0160209004810192826102135760008555610259565b82601f1061022c57805160ff1916838001178555610259565b82800160010185558215610259579182015b8281111561025957825182559160200191906001019061023e565b50610265929150610269565b5090565b5b80821115610265576000815560010161026a565b634e487b7160e01b600052604160045260246000fd5b6000602082840312156102a657600080fd5b813567ffffffffffffffff808211156102be57600080fd5b818401915084601f8301126102d257600080fd5b8135818111156102e4576102e461027e565b604051601f8201601f19908116603f0116810190838211818310171561030c5761030c61027e565b8160405282815287602084870101111561032557600080fd5b826020860160208301376000928101602001929092525095945050505050565b60006020828403121561035757600080fd5b81356001600160a01b038116811461036e57600080fd5b9392505050565b60005b83811015610390578181015183820152602001610378565b8381111561039f576000848401525b50505050565b60208152600082518060208401526103c4816040850160208701610375565b601f01601f19169190910160400192915050565b600082516103ea818460208701610375565b9190910192915050565b600181811c9082168061040857607f821691505b60208210810361042857634e487b7160e01b600052602260045260246000fd5b5091905056fea2646970667358221220e5047da37b2684a77bc45a7c3a71103caf48880b773efd6eab04d68d00f30e4f64736f6c634300080d0033",
  "immutableReferences": {},
  "source": "// SPDX-License-Identifier: MIT\r\npragma solidity >=0.4.22 <0.9.0;\r\n\r\ncontract Mortgage {\r\n  address public borrower;\r\n\r\n  mapping (string=>address) public mortgageToBorrower;\r\n  mapping (address=>string) public borrowerToMortgage;\r\n\r\n  constructor() public {\r\n      borrower = msg.sender;\r\n  }\r\n  \r\n  function addMortgage(string memory document) public {\r\n    mortgageToBorrower[document] = msg.sender;\r\n    borrowerToMortgage[msg.sender] = document;\r\n  }\r\n  \r\n}",
  "sourcePath": "F:\\LOAN GIT\\Lend3.0\\contracts\\Mortgage.sol",
  "compiler": {
    "name": "solc",
    "version": "0.8.13+commit.abaa5c0e.Emscripten.clang"
  },
  "schemaVersion": "3.4.10",
  "updatedAt": "2022-10-31T14:33:43.325Z",
  "devdoc": {
    "kind": "dev",
    "methods": {},
    "version": 1
  },
  "userdoc": {
    "kind": "user",
    "methods": {},
    "version": 1
  }
}